:020000040800F2
:1000000000000120392300083D08000841080008CD
:1000100045080008490800084D08000800000000D5
:10002000000000000000000000000000510800086F
:100030005508000800000000590800085D08000885
:1000400089230008892300088923000889230008E0
:1000500089230008892300088923000889230008D0
:1000600089230008892300088923000889230008C0
:1000700089230008892300088923000889230008B0
:1000800089230008892300088923000889230008A0
:100090008923000889230008892300088923000890
:1000A0008923000889230008892300088923000880
:1000B00089230008000000000000000089230008D8
:1000C0008923000889230008892300088923000860
:1000D0008923000889230008892300088923000850
:1000E00089230008892300080000000000000000A8
:1000F0000000000000000000000000000000000000
:100100000000000089230008000000008923000887
:100110000000000000000000892300088923000877
:1001200089230008892300088923000889230008FF
:10013000892300080000000000000000000000000B
:100140008923000889230008892300080000000093
:1001500089230008892300088923000889230008CF
:100160008923000889230008892300080000000073
:100170008923000889230008000000000000000017
:100180008923000889230008892300080000000053
:1001900010B5054C237833B9044B13B10448AFF3C1
:1001A00000800123237010BD7000002000000000BB
:1001B0001C330008084B10B51BB108490848AFF3C1
:1001C00000800848036803B910BD074B002BFBD023
:1001D000BDE81040184700BF000000007400002078
:1001E0001C33000870000020000000000000000028
:1001F00001F0FF01102A2BDB10F0070F08D010F8D8
:10020000013B013A8B422DD010F0070F42B3F6D1DB
:10021000F0B441EA012141EA014122F007047FF0F4
:1002200000070023F0E80256083C85EA010586EA4B
:10023000010685FA47F5A3FA87F586FA47F6A5FA87
:1002400087F68EB9EED1F0BC01F0FF0102F0070293
:1002500032B110F8013B013A83EA010313B1F8D13E
:100260000020704701387047002D06BF354603381F
:10027000073815F0010F07D1013015F4807F02BF58
:10028000013015F4C03F0130F0BC0138704700BFA9
:1002900053B94AB9002908BF00281CBF4FF0FF31ED
:1002A0004FF0FF3000F07EB9ADF1080C6DE904CEDF
:1002B00000F006F8DDF804E0DDE9022304B0704741
:1002C0002DE9F0478C460E460446089D002B50D180
:1002D0008A4217466CD9B2FA82FEBEF1000F0BD0EB
:1002E000CEF1200420FA04F401FA0EF644EA060CDA
:1002F00002FA0EF700FA0EF44FEA1749220CBCFB83
:10030000F9F01FFA87F809FB10C642EA064600FB1F
:1003100008F3B34209D9F61900F1FF3280F02281C7
:10032000B34240F21F8102383E44F61AA2B2B6FB35
:10033000F9F309FB136642EA064403FB08F8A045FB
:1003400009D9E41903F1FF3280F00A81A04540F297
:100350000781023B3C44C8EB040443EA004000210F
:10036000002D62D024FA0EF400232C606B60BDE8EF
:10037000F0878B4207D9002D55D0002185E8410038
:100380000846BDE8F087B3FA83F1002940F0908079
:10039000B34202D3824200F2F880841A66EB03066D
:1003A0000120B446002D40D085E81010BDE8F0874C
:1003B00012B90127B7FBF2F7B7FA87FEBEF1000FBB
:1003C00035D1F31B4FEA17481FFA87FC0121B3FB15
:1003D000F8F0220C08FB103642EA06460CFB00F34C
:1003E000B34207D9F61900F1FF3202D2B34200F24C
:1003F000CE801046F61AA2B2B6FBF8F308FB1366DD
:1004000042EA06440CFB03FCA44507D9E41903F1B6
:10041000FF3202D2A44500F2B5801346CCEB0404AF
:1004200043EA00409CE729462846BDE8F087CEF124
:10043000200106FA0EF307FA0EF720FA01F94FEA47
:100440001748CE4049EA0309B6FBF8FA4FEA1944C7
:1004500008FB1A661FFA87FC44EA06430AFB0CF203
:100460009A4200FA0EF40AD9DB190AF1FF3180F042
:1004700087809A4240F28480AAF1020A3B449B1A88
:100480001FFA89F9B3FBF8F108FB113349EA03437A
:1004900001FB0CF69E4207D9DB1901F1FF326BD24A
:1004A0009E4269D902393B449B1B41EA0A418EE7CF
:1004B000C1F1200E22FA0EF48B40234320FA0EF7EE
:1004C00006FA01F44FEA134C26FA0EF63C43B6FB4B
:1004D000FCF9270C0CFB19661FFA83F847EA06465D
:1004E00009FB08F7B74202FA01F200FA01FA08D94B
:1004F000F61809F1FF3041D2B7423FD9A9F10209FC
:100500001E44F61BA0B2B6FBFCF40CFB146640EADA
:10051000064704FB08F8B84507D9FF1804F1FF3077
:1005200028D2B84526D9023C1F4444EA0940C8EB0A
:100530000707A0FB02894F4544464E4614D329D0F5
:1005400065B3BAEB040367EB060707FA0EFECB4070
:10055000CF404EEA030385E888000021BDE8F0871C
:100560001346F8E61046E0E6B8EB020469EB030632
:100570000138E5E70446D8E7114695E78146C0E72C
:100580008A467CE7023B3C4448E708460AE70238D3
:100590003E442FE7C245E7D33E46D1E72946BDE8B2
:1005A000F08700BF704700BF70B588B00024039487
:1005B0000494059406940794234BDA6C42F00402E9
:1005C000DA64DA6C02F004020092009ADA6C42F00B
:1005D0000102DA64DA6C02F001020192019ADA6C2B
:1005E00042F00202DA64DB6C03F002030293029B26
:1005F000164D01224FF40051284601F0DFFA012286
:1006000011464FF0904001F0D9FA4FF40053039394
:10061000012604960594069403A9284601F0F4F9EE
:10062000039604960594069403A94FF0904001F0B8
:10063000EBF9C02303930494059403A9284601F021
:10064000E3F908B070BD00BF001002400008004888
:1006500072B6FEE708B51148114B0360114B4360B9
:10066000002383600122C260036143618361C3612F
:10067000036200F097F908B1FFF7EAFF002107488D
:1006800000F0EEF908B1FFF7E3FF0021034800F0A6
:1006900015FA08B1FFF7DCFF08BD00BF9800002085
:1006A00000540040EC9C901008B50B480B4B0360C5
:1006B0004FF4E133436000238360C36003610C2285
:1006C00042618361C3610362436201F0FBFD08B1D3
:1006D000FFF7BEFF08BD00BFEC000020003801405E
:1006E00000B597B04422002105A801F075FE002353
:1006F000009301930293039304934FF4007001F06D
:1007000075FA08B1FFF7A4FF022305934FF4807236
:100710000892102209920F931093012211920A223B
:100720001292072213921493159305A800F0DEFA93
:1007300008B1FFF78DFF0F230093032301930023DC
:100740000293039304930421684600F01FFE08B14E
:10075000FFF77EFF17B05DF804FB00BF10B500F097
:1007600001FAFFF7BDFFFFF71FFFFFF773FFFFF76A
:100770009BFF00F021F8094801F0A8FE00F00CFAF8
:10078000044600F009FA001BB0F5967FF9D300F09B
:1007900003FA044600F02CF8F3E700BF38330008F2
:1007A00010B514464FF0FF3392B2024801F0E6FC58
:1007B000204610BDEC00002008B5094A09490A4846
:1007C00001F012FE00224FF40051084801F0F6F942
:1007D000012211464FF0904001F0F0F908BD00BF32
:1007E000443300085033000858330008000800481C
:1007F00010B50F4C4FF40051204601F0E5F90121EE
:100800004FF0904001F0E0F94FF40051204601F024
:10081000CDF90146074801F0E7FD01214FF0904076
:1008200001F0C4F90146044801F0DEFD10BD00BF2F
:1008300000080048683300087C330008FEE700BF6A
:10084000FEE700BFFEE700BFFEE700BFFEE700BF18
:10085000704700BF704700BF704700BF08B500F089
:100860008FF908BD82B00A4B1A6E42F001021A6677
:100870001A6E02F001020092009A9A6D42F08052C4
:100880009A659B6D03F080530193019B02B0704702
:100890000010024010B59EB00446002119911A9133
:1008A0001B911C911D915C2202A801F095FD22680C
:1008B000174B9A422AD11EA8402340F8703D00F001
:1008C00015FF08B1FFF7C4FE124CE36C43F00203BE
:1008D000E364E36C03F002030093009B4FF4407366
:1008E000199312231A9300231B9303231C930423AD
:1008F0001D9319A9084801F087F8A36D43F400136C
:10090000A365A36D03F400130193019B1EB010BDFA
:1009100000540040001002400004004810B59EB092
:100920000446002119911A911B911C911D915C2282
:1009300002A801F051FD2268184B9A422BD11EA843
:10094000012340F8703D00F0D1FE08B1FFF780FEB2
:10095000134B1A6E42F480421A661A6E02F48042F9
:100960000092009ADA6C42F00102DA64DB6C03F068
:1009700001030193019B4FF4C063199302231A935F
:1009800000231B9303231C9307231D9319A94FF0E6
:10099000904001F039F81EB010BD00BF0038014092
:1009A00000100240002859D010B5044690F841309C
:1009B00013F0FF0F04D1002380F84030FFF76AFFE7
:1009C000242384F841302268136823F00103136064
:1009D0002268636823F0706313612268936823F4CC
:1009E00000439360E368012B05D12268A36843F4B8
:1009F0000043936004E02268A36843F404439360D7
:100A0000E368022B03D123684FF400625A60226826
:100A1000536843F0007343F4004353602268D36883
:100A200023F40043D3602268216963690B43A16901
:100A300043EA0123D3602268E169236A0B43136010
:100A40002268136843F001031360002060642023D0
:100A500084F84130206384F8420010BD01207047C3
:100A600090F84130DBB2202B24D190F84030012B9C
:100A700022D0012380F84030242380F841300268DE
:100A8000136823F0010313600268136823F4805392
:100A9000136003681A68114319600268136843F011
:100AA00001031360202380F84130002380F8403098
:100AB00018467047022070470220704790F8413076
:100AC000DBB2202B22D190F84030012B20D0012323
:100AD00080F84030242380F841300268136823F006
:100AE000010313600268136823F4706343EA012171
:100AF00011600268136843F001031360202380F83B
:100B00004130002380F8403018467047022070477B
:100B100002207047104B1B78C3B110B504464FF448
:100B20007A70B0FBF3F30D4A1068B0FBF3F001F0FC
:100B3000E9F868B90F2C0DD8002221464FF0FF309C
:100B400001F0AEF8064B1C60002010BD012070477C
:100B5000012010BD012010BD04000020080000206D
:100B60000000002008B5032001F088F80F20FFF7EF
:100B7000D1FF18B9FFF776FE002008BD012008BD9F
:100B8000034B1978034A13680B441360704700BF86
:100B90000400002070010020014B1868704700BF5E
:100BA0007001002030B583B00546204B9B6D13F0DB
:100BB000805F02D001F012F80FE01C4CA36D43F0EF
:100BC0008053A365A36D03F080530193019B01F053
:100BD00005F8A36D23F08053A365B0F5007F05D120
:100BE000802D0AD9A02D0AD902210FE0802D08D826
:100BF00009D0702D09D0002108E0002106E0012174
:100C000004E0032102E0022100E00121084A136808
:100C100023F007030B431360136803F007039942A3
:100C200001D0012000E0002003B030BD00100240E0
:100C300000200240294A9368D26813F00C0305D0C3
:100C400002F003020C2B16D1012A14D1234A126898
:100C500012F0080F05D1214AD2F89420C2F30322E2
:100C600003E01E4A1268C2F303121D4951F8221014
:100C700043B100200DE0042B06D0082B07D0002044
:100C8000014606E0084604E01648002101E0164847
:100C900000210C2B21D110B4104BDB6803F00303AF
:100CA000022B02D0032B02D002E00E4900E00E49D5
:100CB0000A4CE068C0F302100130E268C2F3062279
:100CC00002FB01F3B3FBF0F3E068C0F341600130D5
:100CD0004000B3FBF0F05DF8044B70470010024099
:100CE000A83300080024F40000127A00002800F065
:100CF0000F83F0B583B00446A44B9D6805F00C0546
:100D0000DE6806F00306036813F0100F00F0A380FE
:100D10001DB10C2D62D1012E60D19C4B1B6813F0CC
:100D2000020F03D0A369002B00F0F482206A974BD6
:100D30001B6813F0080F04D0944B1B6803F0F003FA
:100D400005E0924BD3F894301B0903F0F003834283
:100D500017D2FFF727FF002840F0DE828B4B1A687E
:100D600042F008021A601A6822F0F001226A0A436F
:100D70001A605A6822F47F42E16942EA01225A600D
:100D800018E0824B1A6842F008021A601A6822F0D2
:100D9000F001226A0A431A605A6822F47F42E1692C
:100DA00042EA01225A602DB9206AFFF7FBFE0028B3
:100DB00040F0B482FFF73EFF744B9B68C3F303130C
:100DC000734AD35C03F01F03D840724B1860724B18
:100DD0001868FFF79FFE00283DD0A1E2A36933B356
:100DE0006A4A136843F001031360FFF7D5FE074614
:100DF00005E0FFF7D1FEC01B022800F29282634B90
:100E00001B6813F0020FF4D0604B1A6842F008021E
:100E10001A601A6822F0F001226A0A431A605A68BE
:100E200022F47F42E16942EA01225A6013E0574A04
:100E3000136823F001031360FFF7AEFE074605E0D9
:100E4000FFF7AAFEC01B022800F26D824F4B1B6801
:100E500013F0020FF4D1236813F0010F52D0082DC4
:100E600003D00C2D0AD1032E08D1484B1B6813F474
:100E7000003F47D06368002B44D156E26368B3F566
:100E8000803F05D1414A136843F48033136018E072
:100E9000B3F5A02F0CD103F18043A3F53C331A68BE
:100EA00042F480221A601A6842F480321A6008E024
:100EB000364B1A6822F480321A601A6822F48022B3
:100EC0001A6063687BB1FFF767FE074605E0FFF72E
:100ED00063FEC01B642800F22A822C4B1B6813F4AB
:100EE000003FF4D00EE0FFF757FE074605E0FFF79E
:100EF00053FEC01B642800F21C82244B1B6813F4B1
:100F0000003FF4D1236813F0020F52D0042D03D018
:100F10000C2D13D1022E11D11C4B1B6813F4806FC2
:100F200003D0E368002B00F00682184A536823F0D0
:100F3000F853216943EA016353603AE0E368E3B19F
:100F4000124A136843F480731360FFF725FE0646C8
:100F500005E0FFF721FE801B022800F2EE810B4B1B
:100F60001B6813F4806FF4D0084A536823F0F853D9
:100F7000216943EA016353601BE0044A136823F4C8
:100F800080731360FFF708FE06460DE00010024074
:100F9000903300080800002000000020FFF7FCFD4F
:100FA000801B022800F2CB81B94B1B6813F4806FC1
:100FB000F4D1236813F0080F30D06369BBB1B44A91
:100FC000D2F8943043F00103C2F89430FFF7E4FD07
:100FD000064605E0FFF7E0FD801B022800F2B18124
:100FE000AB4BD3F8943013F0020FF3D016E0A84ABD
:100FF000D2F8943023F00103C2F89430FFF7CCFD0F
:10100000064605E0FFF7C8FD801B022800F29B8121
:101010009F4BD3F8943013F0020FF3D1236813F0F1
:10102000040F7FD09A4B9B6D13F0805F0BD1984BD0
:101030009A6D42F080529A659B6D03F08053019344
:10104000019B012600E00026924B1B6813F4807F71
:1010500013D1904A136843F480731360FFF79CFD2B
:10106000074605E0FFF798FDC01B022800F26D81DE
:10107000884B1B6813F4807FF4D0A368012B07D141
:10108000834AD2F8903043F00103C2F890301CE05C
:10109000052B0DD17E4BD3F8902042F00402C3F80B
:1010A0009020D3F8902042F00102C3F890200CE089
:1010B000774BD3F8902022F00102C3F89020D3F8A8
:1010C000902022F00402C3F89020A36893B1FFF7A8
:1010D00063FD074607E0FFF75FFDC01B41F2883361
:1010E000984200F234816A4BD3F8903013F0020F2B
:1010F000F1D011E0FFF750FD074607E0FFF74CFD88
:10110000C01B41F28833984200F22381604BD3F830
:10111000903013F0020FF1D126B15D4A936D23F0A8
:1011200080539365236813F0200F30D0636ABBB1FE
:10113000574AD2F8983043F00103C2F89830FFF7CD
:101140002BFD064605E0FFF727FD801B022800F275
:1011500002814F4BD3F8983013F0020FF3D016E012
:101160004B4AD2F8983023F00103C2F89830FFF7C9
:1011700013FD064605E0FFF70FFD801B022800F275
:10118000EC80434BD3F8983013F0020FF3D1A36AED
:10119000002B00F0E480022B40F09E803C4BDB688B
:1011A00003F00301E26A914222D103F07002216B45
:1011B0000139B2EB011F1BD103F4FE42616BB2EBAC
:1011C000012F15D103F07842A16BB2EBC16F0FD1A3
:1011D00003F4C001E26B5208013AB1EB425F07D160
:1011E00003F0C063226C5208013AB3EB426F55D052
:1011F0000C2D00F0B680264B1B6813F0806F40F07A
:10120000B280234A136823F080731360FFF7C4FC95
:10121000054605E0FFF7C0FC401B022800F2A58050
:101220001B4B1B6813F0007FF4D11949CB681A4D92
:101230001D40E36A226B013A43EA0213626B43EA00
:101240000222E06B4008013842EA4052206C40081C
:10125000431E42EA4362A36B42EAC3632B43CB6063
:101260000B6843F080730B60CB6843F08073CB60F6
:10127000FFF792FC044604E0FFF78EFC001B0228F7
:1012800075D8034B1B6813F0007FF5D0002077E082
:1012900000100240007000408C809D01394B1B689B
:1012A00013F0007F65D1374B1A6842F080721A60E4
:1012B000DA6842F08072DA60FFF76EFC044604E000
:1012C000FFF76AFC001B022855D82E4B1B6813F051
:1012D000007FF5D0002053E00C2D4ED0294A136832
:1012E00023F080731360FFF757FC044604E0FFF718
:1012F00053FC001B022842D8224B1B6813F0007FCE
:10130000F5D1204AD168204B0B40D360002037E054
:1013100001207047012033E0012031E001202FE05F
:101320002EE003202CE003202AE0012028E0032007
:1013300026E0032024E0012022E0032020E0032017
:101340001EE003201CE003201AE0032018E0032025
:1013500016E0032014E0032012E0032010E0002038
:101360000EE001200CE001200AE0032008E0032049
:1013700006E0002004E0032002E0012000E003205A
:1013800003B0F0BD00100240FCFFEEFE002800F0AC
:10139000AB8070B504465C4B1B6803F007038B42BF
:1013A0000BD2594A136823F007030B4313601368E9
:1013B00003F00703994240F09980236813F0020F6D
:1013C0000CD0A268514B9B6803F0F0039A4205D9F8
:1013D0004E48836823F0F003134383600D4623686F
:1013E00013F0010F35D06368032B05D1474A12680B
:1013F00012F0007F14D17BE0022B05D1434A126822
:1014000012F4003F0CD175E02BB9404A126812F07B
:10141000020F05D170E03D4A126812F4806F6DD062
:101420003A498A6822F0030213438B60FFF7B4FB4A
:10143000064606E0FFF7B0FB801B41F28833984276
:101440005ED8324B9B6803F00C036268B3EB820FEB
:10145000F0D1236813F0020F0CD0A2682B4B9B68CD
:1014600003F0F0039A4205D228498B6823F0F00379
:1014700013438B60244B1B6803F007039D420AD281
:10148000214A136823F007032B431360136803F00A
:1014900007039D4236D1236813F0040F06D01B4981
:1014A0008B6823F4E062E36813438B60236813F0D6
:1014B000080F07D0154A936823F46053216943EA63
:1014C000C1039360FFF7B6FB104B9B68C3F3031394
:1014D0000F4AD35C03F01F03D8400E4B18600E4B2D
:1014E0001868FFF717FB70BD01207047012070BD21
:1014F000012070BD012070BD012070BD012070BDB4
:10150000032070BD012070BD002002400010024089
:10151000903300080800002000000020014B1868EC
:10152000704700BF0800002008B5FFF7F7FF054B24
:101530009B68C3F30223044AD35C03F01F03D84023
:1015400008BD00BF00100240A033000808B5FFF737
:10155000E5FF054B9B68C3F3C223044AD35C03F049
:101560001F03D84008BD00BF00100240A033000890
:10157000F8B55D4BDB6813F0030F12D05A4BDB68F4
:1015800003F003030268934241D1002A41D0564B35
:10159000DB68C3F302130133426893423BD100245A
:1015A0003AE00368022B0AD0032B0FD0012B19D18C
:1015B0004D4A126812F0020F16D000241BE04A4A6E
:1015C000126812F4806F11D0002414E0464A1268A9
:1015D00012F4003F0CD1444A126812F4802F09D053
:1015E000002408E0012406E0012404E0012402E0D4
:1015F000002400E001247CB93B4EF26822F0730223
:101600004568013D43EA05131343F36004E00124F8
:1016100002E0012400E00124002C63D10F460546BE
:10162000314A136823F080631360FFF7B5FA06466A
:1016300004E0FFF7B1FA801B022805D82A4B1B688B
:1016400013F0006FF5D100E00324002C4AD16FB9EC
:1016500025490B6923F0784222F4FE42A868EB6822
:10166000DB0643EA002313430B6120E0012F0FD177
:101670001D4E336923F4C00121F4FE41A8682B6993
:101680005A08013A520542EA00230B4333610EE047
:10169000154E336923F0C06121F4FE41A8686B69DF
:1016A0005A08013A520642EA00230B4333610E4ABC
:1016B000136843F080631360FFF76EFA064604E098
:1016C000FFF76AFA801B022805D8074B1B6813F046
:1016D000006FF5D000E0032424B9034A1169AB6917
:1016E0000B4313612046F8BD001002402DE9F04184
:1016F00082B00446036813F4006F24D0436CB3F542
:10170000000F06D0B3F5400F01D07BB908E00026EA
:101710000DE0A14AD36843F48033D360002606E08D
:1017200000210430FFF724FF064600E001266EB9D1
:101730009949D1F8883023F44002636C1343C1F80F
:101740008830374603E000273E4600E037462368EE
:1017500013F4003F76D0904B9B6D13F0805F01D166
:10176000012300E0002363B18B4B9A6D42F080525D
:101770009A659B6D03F080530193019B4FF0010824
:1017800001E04FF00008854A136843F4807313604A
:10179000FFF702FA054604E0FFF7FEF9401B0228B6
:1017A00005D87E4B1B6813F4807FF5D000E003263C
:1017B000002E3CD1784BD3F8903013F4407315D001
:1017C000A26D934212D0744AD2F8903023F4407341
:1017D000D2F8901041F48031C2F89010D2F89010F5
:1017E00021F48031C2F89010C2F8903013F0010F4C
:1017F00012D0FFF7D1F9054606E0FFF7CDF9401BFF
:1018000041F28833984206D8634BD3F8903013F0F6
:10181000020FF2D000E003265EB95F49D1F89030A4
:1018200023F44072A36D1343C1F8903002E03746B1
:1018300000E03746B8F1000F04D0574A936D23F00B
:1018400080539365236813F0010F08D05249D1F8F3
:10185000883023F00302236A1343C1F888302368D9
:1018600013F0020F08D04C49D1F8883023F00C0255
:10187000636A1343C1F88830236813F0040F08D05B
:101880004549D1F8883023F03002A36A1343C1F8E8
:101890008830236813F0200F08D03F49D1F88830F2
:1018A00023F44062E36A1343C1F88830236813F4D9
:1018B000007F08D03849D1F8883023F44022E36B08
:1018C0001343C1F88830236813F4806F08D032497D
:1018D000D1F8883023F44012236C1343C1F88830C8
:1018E000236813F0400F08D02B49D1F8883023F437
:1018F0004052236B1343C1F88830236813F0800FE4
:1019000008D02549D1F8883023F44042636B134353
:10191000C1F88830236813F4807F08D01E49D1F8BD
:10192000883023F44032A36B1343C1F88830236816
:1019300013F4002F1AD01849D1F8883023F04062F0
:10194000A36C1343C1F88830A36CB3F1006F04D1CA
:10195000CB6843F48013CB6008E0B3F1806F05D10E
:101960000121201DFFF704FE00B10746236813F490
:10197000802F1ED00849D1F8883023F04062E36CF4
:101980001343C1F88830E36CB3F1006F08D1CB6822
:1019900043F48013CB600CE0001002400070004064
:1019A000B3F1806F05D10121201DFFF7E1FD00B1EA
:1019B0000746236813F4804F12D01249D1F88830BB
:1019C00023F04052236D1343C1F88830236DB3F1E7
:1019D000805F05D10221201DFFF7CAFD00B1074637
:1019E000236813F4004F08D00649D1F8883023F05B
:1019F0008042636D1343C1F88830384602B0BDE8B9
:101A0000F08100BF00100240F0B583B00023BDE0BC
:101A100001249C40224000F0B8804D6805F0030589
:101A2000013D012D15D887684FEA430E032606FABB
:101A30000EF627EA0606CD6805FA0EF535438560F1
:101A4000456825EA04044D68C5F300159D402C4304
:101A500044604C6804F00304032C09D0C6685F009E
:101A60000325BD4026EA05058C68BC402C43C460B4
:101A70004C6804F00304022C0FD1DD08083550F83F
:101A8000257003F00704A6000F24B44027EA0407DA
:101A90000C69B4403C4340F8254005685F000326CC
:101AA000BE4025EA06064C6804F0030505FA07F473
:101AB000344304604C6814F4403F66D0374C256EC4
:101AC00045F001052566246E04F001040194019C93
:101AD0009E08B51C324C54F8255003F00304A400B2
:101AE0000F27A74025EA0707B0F1904F10D02D4DE2
:101AF000A8420FD005F58065A8420DD005F5806598
:101B0000A8420BD005F58065A84209D1042508E05C
:101B1000002506E0012504E0022502E0032500E09F
:101B2000072505FA04F43C4302361D4D45F82640CE
:101B30001D4CA568D44305EA04064F6817F4801FBE
:101B400001D042EA0506184DAE60ED6804EA0506CC
:101B50004F6817F4001F01D042EA0506124DEE60EF
:101B60006D6804EA05064F6817F4003F01D042EAA9
:101B700005060D4D6E602D682C404E6816F4803FB2
:101B800001D042EA0504084A146001330A6832FAB7
:101B900003F47FF43DAF03B0F0BD00BF001002407E
:101BA000000001400004004800040140036919429C
:101BB00001D0012070470020704700BF0AB1816149
:101BC00070478162704700BF436903EA010221EA5E
:101BD000030141EA02418161704700BF024B18686E
:101BE00000F4C060704700BF00700040B0F5007F97
:101BF00027D11F4B1B6803F4C063B3F5007F30D0BF
:101C00001B4A136823F4C06343F400731360194B39
:101C10001A68322303FB02F3174AA2FB03239B0C2F
:101C2000013300E0013B124A526912F4806F01D087
:101C3000002BF7D10E4B5B6913F4806F13D0032098
:101C400070470B4B1B6803F4C063B3F5806F0CD077
:101C5000074A136823F4C06343F4806313600020D1
:101C6000704700207047002070470020704700BF79
:101C7000007000400800002083DE1B43074AD36841
:101C800023F4E0631B041B0C000200F4E060184323
:101C900040F0BF6040F40030D060704700ED00E0DD
:101CA00030B4164BDB68C3F30223C3F10704042CE2
:101CB00028BF04241D1D062D01D9DD1E00E00025CE
:101CC000012303FA04F4013C2140A940AB40013B4D
:101CD0001A400A43002808DB1201D2B200F160402A
:101CE00000F5614080F8002305E000F00F001201CC
:101CF000D2B2034B1A5430BC704700BF00ED00E075
:101D000014ED00E00138B0F1807F0AD2064B586034
:101D1000F021064A82F823100020986007221A60FA
:101D200070470120704700BF10E000E000ED00E0C8
:101D30002DE9F0480446826803691A4343691A434F
:101D4000C3691A4301680868994B034013430B6049
:101D500021684B6823F44052E36813434B60A16948
:101D60002268944B9A4201D0236A1943936823F462
:101D700030630B43936023688F4A934213D102F57B
:101D80005842D2F8882002F00302032A09D8DFE87B
:101D900002F002045F06012263E0042261E00822EF
:101DA0005FE010225DE0854A934218D102F5E632E9
:101DB000D2F8882002F00C020C2A0ED8DFE802F0DC
:101DC000070D0D0D090D0D0D4A0D0D0D0B00002217
:101DD00047E0042245E0082243E0102241E0784A2F
:101DE000934217D102F5E432D2F8882002F0300293
:101DF000102A09D001D82AB10AE0202A2CD0302A92
:101E000004D005E000222CE004222AE0082228E089
:101E1000102226E0674A934220D102F5C832D2F858
:101E2000882002F44062B2F5806F0BD001D83AB13D
:101E30000CE0B2F5006F13D0B2F5406F04D005E0AE
:101E400000220EE004220CE008220AE0102208E042
:101E5000022206E0022204E0022202E0102200E058
:101E6000022254498B4238D1082A11D8DFE802F007
:101E7000081005100C1010101300524800250DE03A
:101E8000FFF752FB002509E0FEF7D4FE002505E030
:101E90000020012502E04FF400400025002800F05A
:101EA0009A80626802EB420398427DD3B0EB023F16
:101EB0007CD80023070E0602500816EB000B47F1F2
:101EC000000C58466146FEF7E3F9A0F540723E4B20
:101ED0009A427BD82368D8607DE0E369B3F5004F70
:101EE00034D1082A15D8DFE802F0080C05141014C4
:101EF000141417003348002511E0FFF715FB0025E7
:101F00000DE0FFF723FB002509E0FEF793FE002517
:101F100005E00020012502E04FF4004000250028E4
:101F200059D06268530803EB4000B0FBF2F0A0F117
:101F300010024FF6EF739A424AD883B223F00F0390
:101F4000C0F3420018432368D86044E0082A15D83B
:101F5000DFE802F0080C05141014141417001948D7
:101F6000002511E0FFF7E0FA00250DE0FFF7EEFA9B
:101F7000002509E0FEF75EFE002505E000200125B2
:101F800002E04FF40040002528B3636800EB5300E3
:101F9000B0FBF3F0A0F110024FF6EF739A4219D89C
:101FA000236880B2D86016E0012514E0012512E014
:101FB000F369FFEF0080004000380140004400401A
:101FC000004800400024F400FFFC0F00012502E05F
:101FD000012500E0012500236366A3662846BDE8CD
:101FE000F08800BF436A13F0010F06D001684B6808
:101FF00023F40032836A13434B60436A13F0020FE9
:1020000006D001684B6823F48032C36A13434B60E7
:10201000436A13F0040F06D001684B6823F4802252
:10202000036B13434B60436A13F0080F06D001683B
:102030004B6823F40042436B13434B60436A13F035
:10204000100F06D001688B6823F48052836B134312
:102050008B60436A13F0200F06D001688B6823F46D
:102060000052C36B13438B60436A13F0400F11D0CF
:1020700001684B6823F48012036C13434B60036CBC
:10208000B3F5801F06D101684B6823F4C002436C8E
:1020900013434B60436A13F0800F06D001684B680E
:1020A00023F40022836C13434B6070472DE9F04109
:1020B00004460F4616469846069D53E0B5F1FF3F8D
:1020C00050D0FEF769FDC8EB0000854200D3EDB9A2
:1020D000226852E8003F23F4D07342E8003100291F
:1020E000F6D1226802F1080353E8003F23F0010310
:1020F000083242E800310029F3D12023A367E367C7
:10210000002384F874300320BDE8F08123681A6846
:1021100012F0040F26D0DA6912F4006F22D04FF4C7
:1021200000621A62226852E8003F23F4D07342E84A
:1021300000310029F6D1226802F1080353E8003F7C
:1021400023F00103083242E800310029F3D12023B3
:10215000A367E367C4F88030002384F87430032059
:10216000BDE8F0812368DB6937EA03030CBF012374
:102170000023B342A2D00020BDE8F0812DE9F04158
:1021800082B01E46836F202B57D104460D469046E1
:10219000002954D0002A54D090F87430012B52D02A
:1021A000012380F874300023C0F880302123836736
:1021B000FEF7F2FC0746A4F85080A4F85280A3680A
:1021C000B3F5805F04D123692BB14FF0000804E020
:1021D0004FF0000801E0A8460025002384F8743081
:1021E0001AE000963B46002280212046FFF75EFF62
:1021F00058BB35B9226838F8023BC3F3080313858E
:1022000003E0236815F8012B1A85B4F852309BB20D
:10221000013B9BB2A4F85230B4F852309BB2002B71
:10222000DFD100963B46002240212046FFF73EFFCB
:10223000034660B92022A2670AE0022308E00123D6
:1022400006E0012304E0022302E0032300E003236D
:10225000184602B0BDE8F08130B583B004460023D3
:10226000C0F88030FEF798FC054623681B6813F021
:10227000080F0AD06FF07E430093034600224FF40C
:1022800000112046FFF712FFB8B923681B6813F04E
:10229000040F0AD06FF07E4300932B4600224FF4C8
:1022A00080012046FFF702FF48B92023A367E367B8
:1022B0000020206684F8740002E0032000E0032080
:1022C00003B030BD58B310B50446836F1BB980F816
:1022D0007430FEF723FB2423A3672268136823F0DE
:1022E000010313602046FFF723FD012819D0636A1C
:1022F00013B12046FFF776FE2268536823F490431B
:1023000053602268936823F02A039360226813685D
:1023100043F0010313602046FFF79EFF10BD01202C
:10232000704710BD034AD2F8883043F47003C2F8F6
:102330008830704700ED00E0DFF834D0FFF7F2FF9F
:102340000C480D490D4A002302E0D458C450043310
:10235000C4188C42F9D30A4A0A4C002301E01360E6
:102360000432A242FBD300F011F8FEF7F7F9FEE7C2
:1023700000000120000000207000002088340008C8
:102380007000002078010020FEE7000070B50E4BC1
:102390000E4CE41AA41000251E46A54204D056F89F
:1023A000253098470135F8E700F0B8FF084C094B95
:1023B000E41AA41000251E46A54204D056F8253084
:1023C00098470135F8E770BD783400087834000884
:1023D0007C3400087834000802440346934202D05B
:1023E00003F8011BFAE770470FB40A4B13B51C68DA
:1023F00024B1A36913B9204600F024FA05AB049A6E
:10240000A1680193204600F0DDFB02B0BDE810405A
:1024100004B070476C00002070B50E46054618B138
:1024200083690BB900F00EFAAB69AC6813B92846A2
:1024300000F008FA224B9C4201D16C6808E0214B65
:102440009C4201D1AC6803E01F4B9C4208BFEC6882
:10245000A3891B0701D523693BB92146284600F013
:1024600091F810B14FF0FF3070BD013EA36816F82F
:10247000011F013BA36091B1002B04DAA2699342D2
:1024800006DB0A2904D023685A1C22601970EDE784
:102490002246284600F022F80130E7D1E2E7002B7F
:1024A00008DA22460A21284600F018F80130D9D06F
:1024B0000A2070BD23680A205A1C2260187070BD63
:1024C000DC330008FC3300081C340008024B0146D2
:1024D0001868FFF7A1BF00BF6C000020F8B50F46D9
:1024E0001446054618B183690BB900F0ABF9224BCD
:1024F0009C4201D16C6808E0204B9C4201D1AC6841
:1025000003E01F4B9C4208BFEC68A369A360A3894A
:102510001A0709D523693BB123682069181A636932
:102520009842FEB20FDB08E02146284600F02AF868
:102530000028F1D04FF0FF361BE02146284600F07E
:1025400017F90028F6D1A368013BA36023685A1C41
:1025500022601F7063690130984204D0A389DB07B1
:1025600007D50A2E05D12146284600F001F900289A
:10257000E0D13046F8BD00BFDC330008FC33000872
:102580001C340008324B70B51D6806460C4625B158
:10259000AB6913B9284600F055F92E4B9C4201D186
:1025A0006C6808E02C4B9C4201D1AC6803E02B4BDB
:1025B0009C4208BFEC68B4F90C309AB215071DD4E0
:1025C000D00602D4092232603AE0510712D5616B7D
:1025D00041B104F14403994202D0304600F01CFAA4
:1025E00000236363A38923F02403A3810023636092
:1025F00023692360A38943F00803A38123694BB9AE
:10260000A38903F42073B3F5007F03D0214630463D
:1026100000F0C6F9A28912F0010305D00023A360DF
:1026200063695B42A36103E0920758BF6369A360DB
:1026300023695BB9B4F90C3003F0800080B230B18B
:1026400043F04003A3814FF0FF3070BD002070BD08
:102650006C000020DC330008FC3300081C34000848
:102660008A892DE9F041054610070C4659D44B687C
:10267000002B02DC0B6C002B17DDE66AAEB102F416
:102680008052002392B22F682B600AB1606D15E072
:10269000216A01232846B047411C0FD12B686BB13A
:1026A0001D2B01D0162B03D12F600020BDE8F08137
:1026B000A38943F04003A381BDE8F081A3895A07B1
:1026C00005D56368C01A636B0BB1236CC01A002375
:1026D0000246E66A216A2846B047431CA38906D110
:1026E00029681D293AD8214ACA40D60736D5002282
:1026F0006260D9042269226004D5421C01D12B6892
:1027000003B96065616B2F600029CED004F14403EA
:10271000994202D0284600F07FF900206063BDE8AE
:10272000F0810F69002FC0D093070E6808BF4B6976
:102730000F6018BF0023C7EB06088B6002E0074458
:10274000C0EB0808B8F1000FAFDD43463A46216AF6
:10275000A66A2846B0470028F1DCA38943F040036D
:10276000A3814FF0FF30BDE8F08100BF01004020A1
:1027700038B50B6905460C46DBB118B183690BB956
:1027800000F060F80C4B9C4201D16C6808E00B4BE8
:102790009C4201D1AC6803E0094B9C4208BFEC6845
:1027A000B4F90C302BB121462846BDE83840FFF77C
:1027B00057BF002038BD00BFDC330008FC330008E1
:1027C0001C340008014900F0A9B800BF71270008B7
:1027D000002310B504460360436083608181436633
:1027E000C281036143618361194608225C30FFF7AF
:1027F000F3FD054B6362054BA362054BE362054B9A
:102800002462236310BD00BF5531000877310008F2
:10281000AF310008D331000870B568234D1E5D4309
:102820000E4605F1740100F045F9044640B100215F
:1028300080E842000C30A06005F16802FFF7CCFD93
:10284000204670BD836910B5044633BB8364C364FE
:102850000365124B124A1B688262984204BF01232F
:10286000836100F01FF86060204600F01BF8A06054
:10287000204600F017F80022E06004216068FFF7AE
:10288000A7FF01220921A068FFF7A2FF022212215F
:10289000E068FFF79DFF0123A36110BDD833000856
:1028A000C5270008F8B51C4B1E68B369074613B965
:1028B0003046FFF7C7FF4836B4687368013B04D45D
:1028C000B4F90C507DB16834F8E733680BB1366861
:1028D000F2E704213846FFF79FFF30600028F6D169
:1028E0000C233B60F8BD4FF6FF73E3810123A38106
:1028F00065662560A560656025616561A561082242
:10290000294604F15C00FFF767FD6563A563A564D4
:10291000E5642046F8BD00BFD83300082DE9F84330
:102920008046894600F14804002694B1A56867688E
:10293000013F0CD4AB89012B07D9B5F90E30013317
:1029400003D029464046C84706436835F0E7246867
:10295000EBE73046BDE8F88370B50E46B1F90E10CE
:10296000002990B014461D4606DA00232B60B38977
:102970001A060ED540230EE001AA00F051FC0028F3
:10298000F3DB029A02F47042A2F500535A425A4114
:102990002A604FF480630020236010B070BD0000F7
:1029A0008B8973B59E0705460C4610D401AB6A4669
:1029B000FFF7D2FF00990646284600F07BF868B979
:1029C000B4F90C309A0522D443F00203A38104F138
:1029D0004703236023610123636118E00D4BAB6261
:1029E000A389206043F08003A381009B6361019B66
:1029F00020614BB1B4F90E10284600F023FC18B149
:102A0000A38943F00103A381A0893043A08102B0D0
:102A100070BD00BFC527000838B50546002946D05F
:102A200051F8043C0C1F002BB8BFE41800F02CFC3C
:102A30001F4A1368114613B96360146032E0A34261
:102A40000ED92268A018834204BF18685B686360CF
:102A500004BF121822600C6024E0A24203D813467F
:102A60005A68002AF9D118681918A1420BD12168B7
:102A7000014458188242196014D1106852685A6093
:102A8000014419600EE002D90C232B600AE0216892
:102A90006018824204BF10685268626004BF09185F
:102AA00021605C602846BDE8384000F0EEBB38BDD0
:102AB0009000002070B5CD1C25F0030508350C2DC5
:102AC00038BF0C25002D064601DBA94202D90C2394
:102AD000336046E000F0D8FB234B1C681A462146C1
:102AE000A1B10B685B1B0ED40B2B03D90B60CC1868
:102AF000CD501EE08C420DBF63684B68636013606D
:102B000018BF0C4615E00C464968E9E7174C2368E6
:102B10001BB9304600F00EFB20602946304600F01D
:102B200009FB431C18D0C41C24F00304A0420DD19F
:102B30002560304600F0A9FB04F10B00231D20F0B6
:102B40000700C31A0ED05A42E25070BD211A304617
:102B500000F0F0FA0130EBD10C233360304600F086
:102B600094FB002070BD00BF900000208C0000206E
:102B70009368013B002B10B4936009DA9469A34277
:102B800002DBCBB20A2B03D15DF8044BFFF7A6BCE6
:102B90001368581C10601970C8B25DF8044B704778
:102BA000F8B506460F461446D518AC4208D03A464A
:102BB00014F8011B3046FFF7DBFF431CF5D100E0A2
:102BC0000020F8BD2DE9F04F9DB00C461746039349
:102BD000064618B183690BB9FFF734FE7F4B9C4260
:102BE00001D1746808E07E4B9C4201D1B46803E0D7
:102BF0007C4B9C4208BFF468A38918070CD5236955
:102C000053B10023099320238DF8293030238DF808
:102C10002A30DFF8D4B144E021463046FFF7B2FC59
:102C20000028EED04FF0FF30D5E0039A111D126856
:102C30000391002A80F28C80524243F002000792F6
:102C4000049098F800302E2B00F08480032298F82E
:102C500000106548FDF7CCFA48B14023CBEB0000EB
:102C600003FA00F0049B1843049008F1010898F857
:102C700000105E488DF82810062208F10107FDF7C4
:102C8000B7FA002800F09580594B002B40F088805F
:102C9000039B073323F0070308330393099B534433
:102CA0000993B846454615F8013B1BB9B8EB07092F
:102CB0000FD003E0252BF9D0A846F3E74B463A4660
:102CC00021463046FFF76CFF01307FD0099B4B4413
:102CD000099398F80030002B78D000234FF0FF3292
:102CE00004930793059206938DF853301A930127A6
:102CF000052229783F48FDF77BFA05F10108049B7E
:102D000038B13C4A801A07FA00F01843049045464F
:102D1000EEE7D90644BF20228DF853201A0744BF9E
:102D20002B228DF853202A782A2A3FF47EAF079A67
:102D300000210A20A846013598F80030303B092BC5
:102D400003D800FB02320121F4E700293FF479AFF8
:102D5000079276E798F801302A2B0BD1039B1A1DB6
:102D60001B680392002BB8BF4FF0FF3308F1020835
:102D700005936BE70023059308F1010019460A2526
:102D80008046013098F80020303A092A03D805FB24
:102D900001210123F4E7002B3FF458AF059155E7DB
:102DA00003AB00932246144B04A93046AFF30080D6
:102DB00007E003AB009322460F4B04A9304600F016
:102DC00093F8B0F1FF3F82467FF468AFA3895B06BA
:102DD0003FF528AF09981DB0BDE8F08FDC3300083F
:102DE000FC3300081C340008423400084634000854
:102DF000000000003C340008A12B00082DE9F0473A
:102E000091461F460A698B68DDF820809342B8BF5F
:102E10001346C9F8003091F8432006460C4612B11B
:102E20000133C9F800302368990642BFD9F8003051
:102E30000233C9F80030256815F0060510D104F1F9
:102E4000190A07E00123524639463046C04701308F
:102E50001AD00135E368D9F800209B1A9D42F1DBB6
:102E600094F843302268003318BF012392060FD52F
:102E7000E1185A1C302081F84300224494F8451090
:102E800082F84310023303E04FF0FF30BDE8F087D3
:102E900004F1430239463046C0470130F4D022687D
:102EA000D9F80050E36802F00602042A08BF5D1B4F
:102EB0002269A3680CBF25EAE57500259342C4BFCB
:102EC0009B1AED184FF000091A344D4509D0012323
:102ED000224639463046C0470130D5D009F10109B4
:102EE000F3E70020BDE8F0872DE9F04317460A7E9E
:102EF00085B06E2A984606460C460C9B01F1430E9F
:102F000000F0AE8011D8632A22D009D8002A00F040
:102F1000BB80582A40F0CA8081F84520834955E09B
:102F2000642A1ED0692A1CD0C0E0732A00F0B08049
:102F300009D86F2A2ED0702A40F0B8800A6842F073
:102F400020020A603EE0752A24D0782A3AD0ADE00B
:102F50001A6801F14205111D1960136884F84230A6
:102F6000A8E021681A6811F0800F02D0111D1960C5
:102F700008E011F0400F02F10401196002D0B2F92B
:102F8000003000E01368002B3CDA2D225B4284F80D
:102F9000432037E021681A6811F0800F02D0111D1C
:102FA000196007E011F0400F02F10401196001D02F
:102FB000138800E01368227E5C496F2A14BF0A223E
:102FC00008221BE078225A4984F8452022681868B4
:102FD00012F0800F00F104051D6003D1550601D5E4
:102FE000038800E00368D00744BF42F0200222605B
:102FF0001BB9226822F0200222601022002084F8EF
:10300000430001E049490A226568A560002D08DBFC
:10301000206820F0040020602BB9002D7DD175467A
:103020000CE0002B79D07546B3FBF2F002FB1033B5
:10303000CB5C05F8013D03460028F5D1082A0BD1E9
:103040002368DA0708D5236962689A42DEBF302315
:1030500005F8013C05F1FF35C5EB0E0323612EE0B9
:1030600008681A68496910F0800F03D0101D1860B5
:10307000136808E010F0400F02F1040018601368B4
:1030800001D0198000E0196000232361754616E025
:103090001A68111D19601568626800212846FDF73D
:1030A000A7F808B1401B6060636804E004F14205C2
:1030B00084F8422001232361002384F84330CDF8B3
:1030C00000803B4603AA21463046FFF797FE0130B9
:1030D00002D14FF0FF3026E023692A4639463046B8
:1030E000C0470130F5D023689B0710D5002504F1B7
:1030F000190907E001234A4639463046C0470130E6
:10310000E7D00135E368039A9B1A9D42F2DBE06841
:10311000039B9842B8BF184605E00B7884F842300C
:1031200004F142058AE705B0BDE8F0834D3400089C
:103130005E34000838B5064C002305460846236077
:1031400000F0DEF8431C02D1236803B12B6038BDC8
:103150007401002010B50C46B1F90E1000F096F87D
:103160000028ABBF636DA3891B1823F48053ACBF49
:103170006365A38110BD2DE9F0411F468B89DB05F6
:1031800005460C46164605D502230022B1F90E105D
:1031900000F068F8A389B4F90E1023F48053A381DA
:1031A00032463B462846BDE8F04100F017B810B55E
:1031B0000C46B1F90E1000F055F8431CA38915BF59
:1031C000606523F4805343F48053A38118BFA38127
:1031D00010BDB1F90E1000F013B8000038B5074C5F
:1031E000054608461146002222601A46FDF7D8FA25
:1031F000431C02D1236803B12B6038BD7401002049
:1032000038B5064C002305460846236000F050F808
:10321000431C02D1236803B12B6038BD7401002028
:1032200038B5074C0023054608461146236000F0D8
:1032300047F8431C02D1236803B12B6038BD00BF9F
:103240007401002038B5064C00230546084623606B
:1032500000F03EF8431C02D1236803B12B6038BD57
:103260007401002038B5074C054608461146002277
:1032700022601A4600F034F8431C02D1236803B1DF
:103280002B6038BD740100207047704738B5074C7B
:10329000054608461146002222601A4600F028F82A
:1032A000431C02D1236803B12B6038BD7401002098
:1032B000024B58221A604FF0FF3070477401002013
:1032C000024B58221A604FF0FF3070477401002003
:1032D000024B58221A600020704700BF7401002082
:1032E000024B58221A604FF0FF30704774010020E3
:1032F000024B58221A604FF0FF30704774010020D3
:10330000044A05491368002B08BF0B461844106097
:10331000184670479400002078010020F8B500BFDF
:10332000F8BC08BC9E467047F8B500BFF8BC08BCA6
:083330009E46704700000000FA
:10333800496E697420446F6E650D00003230323278
:103348002E31302E3234000056312E30000000006D
:103358005665723A2025732D25730D0A000000006A
:1033680044656D6F204C454420424C55453A2564D0
:103378000D0A000044656D6F204C454420524544B9
:103388003A25640D0A00000000000000000000005B
:1033980001020304060708090000000001020304F3
:1033A800A0860100400D0300801A060000350C00BD
:1033B80040420F0080841E0000093D0000127A0080
:1033C8000024F40000366E010048E801006CDC02BD
:1033D8000C000020000000000000000000000000B9
:1033E80000000000000000000000000000000000D5
:1033F80000000000000000000000000000000000C5
:1034080000000000000000000000000000000000B4
:1034180000000000000000000000000000000000A4
:103428000000000000000000000000000000000094
:1034380000000000232D302B2000686C4C006566CE
:1034480067454647003031323334353637383941ED
:103458004243444546003031323334353637383903
:08346800616263646566000007
:0834700050CEFF7F01000000B7
:08347800B5010008000000008E
:083480009101000800000000AA
:10348800100000000100000000093D0000000000DD
:10349800DC330008FC3300081C340008000000007E
:1034A8000000000000000000000000000000000014
:1034B8000000000000000000000000000000000004
:1034C80000000000000000000000000000000000F4
:1034D80000000000000000000000000000000000E4
:1034E8000000000000000000000000000C000020A8
:040000050800233993
:00000001FF
